{
  "_format": "hh-sol-artifact-1",
  "contractName": "HexaArtTradable",
  "sourceName": "contracts/Hexa1155.sol",
  "abi": [
    {
      "inputs": [
        {
          "internalType": "string",
          "name": "_name",
          "type": "string"
        },
        {
          "internalType": "string",
          "name": "_symbol",
          "type": "string"
        },
        {
          "internalType": "uint256",
          "name": "_platformFee",
          "type": "uint256"
        },
        {
          "internalType": "address payable",
          "name": "_feeReceipient",
          "type": "address"
        },
        {
          "internalType": "address",
          "name": "_marketplace",
          "type": "address"
        }
      ],
      "stateMutability": "nonpayable",
      "type": "constructor"
    },
    {
      "anonymous": false,
      "inputs": [
        {
          "indexed": true,
          "internalType": "address",
          "name": "account",
          "type": "address"
        },
        {
          "indexed": true,
          "internalType": "address",
          "name": "operator",
          "type": "address"
        },
        {
          "indexed": false,
          "internalType": "bool",
          "name": "approved",
          "type": "bool"
        }
      ],
      "name": "ApprovalForAll",
      "type": "event"
    },
    {
      "anonymous": false,
      "inputs": [
        {
          "indexed": true,
          "internalType": "address",
          "name": "previousOwner",
          "type": "address"
        },
        {
          "indexed": true,
          "internalType": "address",
          "name": "newOwner",
          "type": "address"
        }
      ],
      "name": "OwnershipTransferred",
      "type": "event"
    },
    {
      "anonymous": false,
      "inputs": [
        {
          "indexed": true,
          "internalType": "address",
          "name": "operator",
          "type": "address"
        },
        {
          "indexed": true,
          "internalType": "address",
          "name": "from",
          "type": "address"
        },
        {
          "indexed": true,
          "internalType": "address",
          "name": "to",
          "type": "address"
        },
        {
          "indexed": false,
          "internalType": "uint256[]",
          "name": "ids",
          "type": "uint256[]"
        },
        {
          "indexed": false,
          "internalType": "uint256[]",
          "name": "values",
          "type": "uint256[]"
        }
      ],
      "name": "TransferBatch",
      "type": "event"
    },
    {
      "anonymous": false,
      "inputs": [
        {
          "indexed": true,
          "internalType": "address",
          "name": "operator",
          "type": "address"
        },
        {
          "indexed": true,
          "internalType": "address",
          "name": "from",
          "type": "address"
        },
        {
          "indexed": true,
          "internalType": "address",
          "name": "to",
          "type": "address"
        },
        {
          "indexed": false,
          "internalType": "uint256",
          "name": "id",
          "type": "uint256"
        },
        {
          "indexed": false,
          "internalType": "uint256",
          "name": "value",
          "type": "uint256"
        }
      ],
      "name": "TransferSingle",
      "type": "event"
    },
    {
      "anonymous": false,
      "inputs": [
        {
          "indexed": false,
          "internalType": "string",
          "name": "value",
          "type": "string"
        },
        {
          "indexed": true,
          "internalType": "uint256",
          "name": "id",
          "type": "uint256"
        }
      ],
      "name": "URI",
      "type": "event"
    },
    {
      "inputs": [
        {
          "internalType": "uint256",
          "name": "_id",
          "type": "uint256"
        }
      ],
      "name": "_exists",
      "outputs": [
        {
          "internalType": "bool",
          "name": "",
          "type": "bool"
        }
      ],
      "stateMutability": "view",
      "type": "function"
    },
    {
      "inputs": [
        {
          "internalType": "address",
          "name": "account",
          "type": "address"
        },
        {
          "internalType": "uint256",
          "name": "id",
          "type": "uint256"
        }
      ],
      "name": "balanceOf",
      "outputs": [
        {
          "internalType": "uint256",
          "name": "",
          "type": "uint256"
        }
      ],
      "stateMutability": "view",
      "type": "function"
    },
    {
      "inputs": [
        {
          "internalType": "address[]",
          "name": "accounts",
          "type": "address[]"
        },
        {
          "internalType": "uint256[]",
          "name": "ids",
          "type": "uint256[]"
        }
      ],
      "name": "balanceOfBatch",
      "outputs": [
        {
          "internalType": "uint256[]",
          "name": "",
          "type": "uint256[]"
        }
      ],
      "stateMutability": "view",
      "type": "function"
    },
    {
      "inputs": [
        {
          "internalType": "address",
          "name": "account",
          "type": "address"
        },
        {
          "internalType": "uint256",
          "name": "id",
          "type": "uint256"
        },
        {
          "internalType": "uint256",
          "name": "value",
          "type": "uint256"
        }
      ],
      "name": "burn",
      "outputs": [],
      "stateMutability": "nonpayable",
      "type": "function"
    },
    {
      "inputs": [
        {
          "internalType": "address",
          "name": "account",
          "type": "address"
        },
        {
          "internalType": "uint256[]",
          "name": "ids",
          "type": "uint256[]"
        },
        {
          "internalType": "uint256[]",
          "name": "values",
          "type": "uint256[]"
        }
      ],
      "name": "burnBatch",
      "outputs": [],
      "stateMutability": "nonpayable",
      "type": "function"
    },
    {
      "inputs": [
        {
          "internalType": "uint256",
          "name": "",
          "type": "uint256"
        }
      ],
      "name": "creators",
      "outputs": [
        {
          "internalType": "address",
          "name": "",
          "type": "address"
        }
      ],
      "stateMutability": "view",
      "type": "function"
    },
    {
      "inputs": [],
      "name": "feeReceipient",
      "outputs": [
        {
          "internalType": "address payable",
          "name": "",
          "type": "address"
        }
      ],
      "stateMutability": "view",
      "type": "function"
    },
    {
      "inputs": [],
      "name": "getCurrentTokenID",
      "outputs": [
        {
          "internalType": "uint256",
          "name": "",
          "type": "uint256"
        }
      ],
      "stateMutability": "view",
      "type": "function"
    },
    {
      "inputs": [
        {
          "internalType": "address",
          "name": "_owner",
          "type": "address"
        },
        {
          "internalType": "address",
          "name": "_operator",
          "type": "address"
        }
      ],
      "name": "isApprovedForAll",
      "outputs": [
        {
          "internalType": "bool",
          "name": "isOperator",
          "type": "bool"
        }
      ],
      "stateMutability": "view",
      "type": "function"
    },
    {
      "inputs": [
        {
          "internalType": "address",
          "name": "_to",
          "type": "address"
        },
        {
          "internalType": "uint256",
          "name": "_supply",
          "type": "uint256"
        },
        {
          "internalType": "string",
          "name": "_uri",
          "type": "string"
        }
      ],
      "name": "mint",
      "outputs": [],
      "stateMutability": "payable",
      "type": "function"
    },
    {
      "inputs": [],
      "name": "name",
      "outputs": [
        {
          "internalType": "string",
          "name": "",
          "type": "string"
        }
      ],
      "stateMutability": "view",
      "type": "function"
    },
    {
      "inputs": [],
      "name": "owner",
      "outputs": [
        {
          "internalType": "address",
          "name": "",
          "type": "address"
        }
      ],
      "stateMutability": "view",
      "type": "function"
    },
    {
      "inputs": [],
      "name": "platformFee",
      "outputs": [
        {
          "internalType": "uint256",
          "name": "",
          "type": "uint256"
        }
      ],
      "stateMutability": "view",
      "type": "function"
    },
    {
      "inputs": [],
      "name": "renounceOwnership",
      "outputs": [],
      "stateMutability": "nonpayable",
      "type": "function"
    },
    {
      "inputs": [
        {
          "internalType": "address",
          "name": "from",
          "type": "address"
        },
        {
          "internalType": "address",
          "name": "to",
          "type": "address"
        },
        {
          "internalType": "uint256[]",
          "name": "ids",
          "type": "uint256[]"
        },
        {
          "internalType": "uint256[]",
          "name": "amounts",
          "type": "uint256[]"
        },
        {
          "internalType": "bytes",
          "name": "data",
          "type": "bytes"
        }
      ],
      "name": "safeBatchTransferFrom",
      "outputs": [],
      "stateMutability": "nonpayable",
      "type": "function"
    },
    {
      "inputs": [
        {
          "internalType": "address",
          "name": "from",
          "type": "address"
        },
        {
          "internalType": "address",
          "name": "to",
          "type": "address"
        },
        {
          "internalType": "uint256",
          "name": "id",
          "type": "uint256"
        },
        {
          "internalType": "uint256",
          "name": "amount",
          "type": "uint256"
        },
        {
          "internalType": "bytes",
          "name": "data",
          "type": "bytes"
        }
      ],
      "name": "safeTransferFrom",
      "outputs": [],
      "stateMutability": "nonpayable",
      "type": "function"
    },
    {
      "inputs": [
        {
          "internalType": "address",
          "name": "operator",
          "type": "address"
        },
        {
          "internalType": "bool",
          "name": "approved",
          "type": "bool"
        }
      ],
      "name": "setApprovalForAll",
      "outputs": [],
      "stateMutability": "nonpayable",
      "type": "function"
    },
    {
      "inputs": [
        {
          "internalType": "bytes4",
          "name": "interfaceId",
          "type": "bytes4"
        }
      ],
      "name": "supportsInterface",
      "outputs": [
        {
          "internalType": "bool",
          "name": "",
          "type": "bool"
        }
      ],
      "stateMutability": "view",
      "type": "function"
    },
    {
      "inputs": [],
      "name": "symbol",
      "outputs": [
        {
          "internalType": "string",
          "name": "",
          "type": "string"
        }
      ],
      "stateMutability": "view",
      "type": "function"
    },
    {
      "inputs": [
        {
          "internalType": "uint256",
          "name": "",
          "type": "uint256"
        }
      ],
      "name": "tokenSupply",
      "outputs": [
        {
          "internalType": "uint256",
          "name": "",
          "type": "uint256"
        }
      ],
      "stateMutability": "view",
      "type": "function"
    },
    {
      "inputs": [
        {
          "internalType": "uint256",
          "name": "_id",
          "type": "uint256"
        }
      ],
      "name": "totalSupply",
      "outputs": [
        {
          "internalType": "uint256",
          "name": "",
          "type": "uint256"
        }
      ],
      "stateMutability": "view",
      "type": "function"
    },
    {
      "inputs": [
        {
          "internalType": "address",
          "name": "newOwner",
          "type": "address"
        }
      ],
      "name": "transferOwnership",
      "outputs": [],
      "stateMutability": "nonpayable",
      "type": "function"
    },
    {
      "inputs": [
        {
          "internalType": "uint256",
          "name": "_id",
          "type": "uint256"
        }
      ],
      "name": "uri",
      "outputs": [
        {
          "internalType": "string",
          "name": "",
          "type": "string"
        }
      ],
      "stateMutability": "view",
      "type": "function"
    }
  ],
  "bytecode": "0x608060405260006004553480156200001657600080fd5b50604051620047713803806200477183398181016040528101906200003c9190620003a1565b604051806020016040528060008152506200005d816200014460201b60201c565b506200007e620000726200016060201b60201c565b6200016860201b60201c565b8460089080519060200190620000969291906200022e565b508360099080519060200190620000af9291906200022e565b5082600a8190555081600b60006101000a81548173ffffffffffffffffffffffffffffffffffffffff021916908373ffffffffffffffffffffffffffffffffffffffff16021790555080600c60006101000a81548173ffffffffffffffffffffffffffffffffffffffff021916908373ffffffffffffffffffffffffffffffffffffffff16021790555050505050506200068b565b80600290805190602001906200015c9291906200022e565b5050565b600033905090565b6000600360009054906101000a900473ffffffffffffffffffffffffffffffffffffffff16905081600360006101000a81548173ffffffffffffffffffffffffffffffffffffffff021916908373ffffffffffffffffffffffffffffffffffffffff1602179055508173ffffffffffffffffffffffffffffffffffffffff168173ffffffffffffffffffffffffffffffffffffffff167f8be0079c531659141344cd1fd0a4f28419497f9722a3daafe3b4186f6b6457e060405160405180910390a35050565b8280546200023c906200054e565b90600052602060002090601f016020900481019282620002605760008555620002ac565b82601f106200027b57805160ff1916838001178555620002ac565b82800160010185558215620002ac579182015b82811115620002ab5782518255916020019190600101906200028e565b5b509050620002bb9190620002bf565b5090565b5b80821115620002da576000816000905550600101620002c0565b5090565b6000620002f5620002ef8462000490565b62000467565b9050828152602081018484840111156200031457620003136200061d565b5b6200032184828562000518565b509392505050565b6000815190506200033a816200063d565b92915050565b600081519050620003518162000657565b92915050565b600082601f8301126200036f576200036e62000618565b5b815162000381848260208601620002de565b91505092915050565b6000815190506200039b8162000671565b92915050565b600080600080600060a08688031215620003c057620003bf62000627565b5b600086015167ffffffffffffffff811115620003e157620003e062000622565b5b620003ef8882890162000357565b955050602086015167ffffffffffffffff81111562000413576200041262000622565b5b620004218882890162000357565b945050604062000434888289016200038a565b9350506060620004478882890162000340565b92505060806200045a8882890162000329565b9150509295509295909350565b60006200047362000486565b905062000481828262000584565b919050565b6000604051905090565b600067ffffffffffffffff821115620004ae57620004ad620005e9565b5b620004b9826200062c565b9050602081019050919050565b6000620004d382620004ee565b9050919050565b6000620004e782620004ee565b9050919050565b600073ffffffffffffffffffffffffffffffffffffffff82169050919050565b6000819050919050565b60005b83811015620005385780820151818401526020810190506200051b565b8381111562000548576000848401525b50505050565b600060028204905060018216806200056757607f821691505b602082108114156200057e576200057d620005ba565b5b50919050565b6200058f826200062c565b810181811067ffffffffffffffff82111715620005b157620005b0620005e9565b5b80604052505050565b7f4e487b7100000000000000000000000000000000000000000000000000000000600052602260045260246000fd5b7f4e487b7100000000000000000000000000000000000000000000000000000000600052604160045260246000fd5b600080fd5b600080fd5b600080fd5b600080fd5b6000601f19601f8301169050919050565b6200064881620004c6565b81146200065457600080fd5b50565b6200066281620004da565b81146200066e57600080fd5b50565b6200067c816200050e565b81146200068857600080fd5b50565b6140d6806200069b6000396000f3fe60806040526004361061013f5760003560e01c80638da5cb5b116100b6578063d3fc98641161006f578063d3fc986414610483578063e985e9c51461049f578063f242432a146104dc578063f2fde38b14610505578063f5298aca1461052e578063f8e76cc0146105575761013f565b80638da5cb5b1461035f57806395d89b411461038a578063a22cb465146103b5578063bd85b039146103de578063c4a6d0d21461041b578063cd53d08e146104465761013f565b80632693ebf2116101085780632693ebf2146102515780632eb2c2d61461028e5780633740ebb3146102b75780634e1273f4146102e25780636b20c4541461031f578063715018a6146103485761013f565b8062fdd58e1461014457806301ffc9a71461018157806306fdde03146101be5780630e89341c146101e957806326232a2e14610226575b600080fd5b34801561015057600080fd5b5061016b60048036038101906101669190612c83565b610594565b6040516101789190613689565b60405180910390f35b34801561018d57600080fd5b506101a860048036038101906101a39190612e02565b61065d565b6040516101b591906133e8565b60405180910390f35b3480156101ca57600080fd5b506101d361073f565b6040516101e09190613427565b60405180910390f35b3480156101f557600080fd5b50610210600480360381019061020b9190612e5c565b6107cd565b60405161021d9190613427565b60405180910390f35b34801561023257600080fd5b5061023b6108ba565b6040516102489190613689565b60405180910390f35b34801561025d57600080fd5b5061027860048036038101906102739190612e5c565b6108c0565b6040516102859190613689565b60405180910390f35b34801561029a57600080fd5b506102b560048036038101906102b09190612a52565b6108d8565b005b3480156102c357600080fd5b506102cc610979565b6040516102d991906132b2565b60405180910390f35b3480156102ee57600080fd5b5061030960048036038101906103049190612d8a565b61099f565b604051610316919061338f565b60405180910390f35b34801561032b57600080fd5b5061034660048036038101906103419190612bb8565b610ab8565b005b34801561035457600080fd5b5061035d610b55565b005b34801561036b57600080fd5b50610374610b69565b6040516103819190613297565b60405180910390f35b34801561039657600080fd5b5061039f610b93565b6040516103ac9190613427565b60405180910390f35b3480156103c157600080fd5b506103dc60048036038101906103d79190612c43565b610c21565b005b3480156103ea57600080fd5b5061040560048036038101906104009190612e5c565b610c37565b6040516104129190613689565b60405180910390f35b34801561042757600080fd5b50610430610c54565b60405161043d9190613689565b60405180910390f35b34801561045257600080fd5b5061046d60048036038101906104689190612e5c565b610c5e565b60405161047a9190613297565b60405180910390f35b61049d60048036038101906104989190612cc3565b610c91565b005b3480156104ab57600080fd5b506104c660048036038101906104c19190612a12565b610eda565b6040516104d391906133e8565b60405180910390f35b3480156104e857600080fd5b5061050360048036038101906104fe9190612b21565b610f4e565b005b34801561051157600080fd5b5061052c600480360381019061052791906129e5565b610fef565b005b34801561053a57600080fd5b5061055560048036038101906105509190612d37565b611073565b005b34801561056357600080fd5b5061057e60048036038101906105799190612e5c565b611110565b60405161058b91906133e8565b60405180910390f35b60008073ffffffffffffffffffffffffffffffffffffffff168373ffffffffffffffffffffffffffffffffffffffff161415610605576040517f08c379a00000000000000000000000000000000000000000000000000000000081526004016105fc90613509565b60405180910390fd5b60008083815260200190815260200160002060008473ffffffffffffffffffffffffffffffffffffffff1673ffffffffffffffffffffffffffffffffffffffff16815260200190815260200160002054905092915050565b60007fd9b67a26000000000000000000000000000000000000000000000000000000007bffffffffffffffffffffffffffffffffffffffffffffffffffffffff1916827bffffffffffffffffffffffffffffffffffffffffffffffffffffffff1916148061072857507f0e89341c000000000000000000000000000000000000000000000000000000007bffffffffffffffffffffffffffffffffffffffffffffffffffffffff1916827bffffffffffffffffffffffffffffffffffffffffffffffffffffffff1916145b8061073857506107378261117c565b5b9050919050565b6008805461074c90613915565b80601f016020809104026020016040519081016040528092919081815260200182805461077890613915565b80156107c55780601f1061079a576101008083540402835291602001916107c5565b820191906000526020600020905b8154815290600101906020018083116107a857829003601f168201915b505050505081565b60606107d882611110565b610817576040517f08c379a000000000000000000000000000000000000000000000000000000000815260040161080e90613549565b60405180910390fd5b60056000838152602001908152602001600020805461083590613915565b80601f016020809104026020016040519081016040528092919081815260200182805461086190613915565b80156108ae5780601f10610883576101008083540402835291602001916108ae565b820191906000526020600020905b81548152906001019060200180831161089157829003601f168201915b50505050509050919050565b600a5481565b60076020528060005260406000206000915090505481565b6108e06111e6565b73ffffffffffffffffffffffffffffffffffffffff168573ffffffffffffffffffffffffffffffffffffffff1614806109265750610925856109206111e6565b610eda565b5b610965576040517f08c379a000000000000000000000000000000000000000000000000000000000815260040161095c90613529565b60405180910390fd5b61097285858585856111ee565b5050505050565b600b60009054906101000a900473ffffffffffffffffffffffffffffffffffffffff1681565b606081518351146109e5576040517f08c379a00000000000000000000000000000000000000000000000000000000081526004016109dc90613609565b60405180910390fd5b6000835167ffffffffffffffff811115610a0257610a01613a4e565b5b604051908082528060200260200182016040528015610a305781602001602082028036833780820191505090505b50905060005b8451811015610aad57610a7d858281518110610a5557610a54613a1f565b5b6020026020010151858381518110610a7057610a6f613a1f565b5b6020026020010151610594565b828281518110610a9057610a8f613a1f565b5b60200260200101818152505080610aa690613978565b9050610a36565b508091505092915050565b610ac06111e6565b73ffffffffffffffffffffffffffffffffffffffff168373ffffffffffffffffffffffffffffffffffffffff161480610b065750610b0583610b006111e6565b610eda565b5b610b45576040517f08c379a0000000000000000000000000000000000000000000000000000000008152600401610b3c90613529565b60405180910390fd5b610b50838383611510565b505050565b610b5d6117df565b610b67600061185d565b565b6000600360009054906101000a900473ffffffffffffffffffffffffffffffffffffffff16905090565b60098054610ba090613915565b80601f0160208091040260200160405190810160405280929190818152602001828054610bcc90613915565b8015610c195780601f10610bee57610100808354040283529160200191610c19565b820191906000526020600020905b815481529060010190602001808311610bfc57829003601f168201915b505050505081565b610c33610c2c6111e6565b8383611923565b5050565b600060076000838152602001908152602001600020549050919050565b6000600454905090565b60066020528060005260406000206000915054906101000a900473ffffffffffffffffffffffffffffffffffffffff1681565b600a54341015610cd6576040517f08c379a0000000000000000000000000000000000000000000000000000000008152600401610ccd90613469565b60405180910390fd5b6000610ce0611a90565b9050610cea611aa6565b336006600083815260200190815260200160002060006101000a81548173ffffffffffffffffffffffffffffffffffffffff021916908373ffffffffffffffffffffffffffffffffffffffff160217905550610d8a8184848080601f016020809104026020016040519081016040528093929190818152602001838380828437600081840152601f19601f82011690508083019250505050505050611ac0565b6000838390501115610dd157807f6bb7ff708619ba0610cba295a58592e0451dee2622938c8755667688daf3529b8484604051610dc8929190613403565b60405180910390a25b610dec85828660405180602001604052806000815250611b34565b8360076000838152602001908152602001600020819055506000600b60009054906101000a900473ffffffffffffffffffffffffffffffffffffffff1673ffffffffffffffffffffffffffffffffffffffff1634604051610e4c90613282565b60006040518083038185875af1925050503d8060008114610e89576040519150601f19603f3d011682016040523d82523d6000602084013e610e8e565b606091505b5050905080610ed2576040517f08c379a0000000000000000000000000000000000000000000000000000000008152600401610ec9906134a9565b60405180910390fd5b505050505050565b60008173ffffffffffffffffffffffffffffffffffffffff16600c60009054906101000a900473ffffffffffffffffffffffffffffffffffffffff1673ffffffffffffffffffffffffffffffffffffffff161415610f3b5760019050610f48565b610f458383611ce5565b90505b92915050565b610f566111e6565b73ffffffffffffffffffffffffffffffffffffffff168573ffffffffffffffffffffffffffffffffffffffff161480610f9c5750610f9b85610f966111e6565b610eda565b5b610fdb576040517f08c379a0000000000000000000000000000000000000000000000000000000008152600401610fd290613529565b60405180910390fd5b610fe88585858585611d79565b5050505050565b610ff76117df565b600073ffffffffffffffffffffffffffffffffffffffff168173ffffffffffffffffffffffffffffffffffffffff161415611067576040517f08c379a000000000000000000000000000000000000000000000000000000000815260040161105e90613489565b60405180910390fd5b6110708161185d565b50565b61107b6111e6565b73ffffffffffffffffffffffffffffffffffffffff168373ffffffffffffffffffffffffffffffffffffffff1614806110c157506110c0836110bb6111e6565b610eda565b5b611100576040517f08c379a00000000000000000000000000000000000000000000000000000000081526004016110f790613529565b60405180910390fd5b61110b838383612015565b505050565b60008073ffffffffffffffffffffffffffffffffffffffff166006600084815260200190815260200160002060009054906101000a900473ffffffffffffffffffffffffffffffffffffffff1673ffffffffffffffffffffffffffffffffffffffff1614159050919050565b60007f01ffc9a7000000000000000000000000000000000000000000000000000000007bffffffffffffffffffffffffffffffffffffffffffffffffffffffff1916827bffffffffffffffffffffffffffffffffffffffffffffffffffffffff1916149050919050565b600033905090565b8151835114611232576040517f08c379a000000000000000000000000000000000000000000000000000000000815260040161122990613629565b60405180910390fd5b600073ffffffffffffffffffffffffffffffffffffffff168473ffffffffffffffffffffffffffffffffffffffff1614156112a2576040517f08c379a000000000000000000000000000000000000000000000000000000000815260040161129990613569565b60405180910390fd5b60006112ac6111e6565b90506112bc81878787878761225c565b60005b845181101561146d5760008582815181106112dd576112dc613a1f565b5b6020026020010151905060008583815181106112fc576112fb613a1f565b5b60200260200101519050600080600084815260200190815260200160002060008b73ffffffffffffffffffffffffffffffffffffffff1673ffffffffffffffffffffffffffffffffffffffff1681526020019081526020016000205490508181101561139d576040517f08c379a0000000000000000000000000000000000000000000000000000000008152600401611394906135a9565b60405180910390fd5b81810360008085815260200190815260200160002060008c73ffffffffffffffffffffffffffffffffffffffff1673ffffffffffffffffffffffffffffffffffffffff168152602001908152602001600020819055508160008085815260200190815260200160002060008b73ffffffffffffffffffffffffffffffffffffffff1673ffffffffffffffffffffffffffffffffffffffff168152602001908152602001600020600082825461145291906137f7565b925050819055505050508061146690613978565b90506112bf565b508473ffffffffffffffffffffffffffffffffffffffff168673ffffffffffffffffffffffffffffffffffffffff168273ffffffffffffffffffffffffffffffffffffffff167f4a39dc06d4c0dbc64b70af90fd698a233a518aa5d07e595d983b8c0526c8f7fb87876040516114e49291906133b1565b60405180910390a46114fa818787878787612264565b61150881878787878761226c565b505050505050565b600073ffffffffffffffffffffffffffffffffffffffff168373ffffffffffffffffffffffffffffffffffffffff161415611580576040517f08c379a000000000000000000000000000000000000000000000000000000000815260040161157790613589565b60405180910390fd5b80518251146115c4576040517f08c379a00000000000000000000000000000000000000000000000000000000081526004016115bb90613629565b60405180910390fd5b60006115ce6111e6565b90506115ee8185600086866040518060200160405280600081525061225c565b60005b835181101561173b57600084828151811061160f5761160e613a1f565b5b60200260200101519050600084838151811061162e5761162d613a1f565b5b60200260200101519050600080600084815260200190815260200160002060008973ffffffffffffffffffffffffffffffffffffffff1673ffffffffffffffffffffffffffffffffffffffff168152602001908152602001600020549050818110156116cf576040517f08c379a00000000000000000000000000000000000000000000000000000000081526004016116c6906134c9565b60405180910390fd5b81810360008085815260200190815260200160002060008a73ffffffffffffffffffffffffffffffffffffffff1673ffffffffffffffffffffffffffffffffffffffff16815260200190815260200160002081905550505050808061173390613978565b9150506115f1565b50600073ffffffffffffffffffffffffffffffffffffffff168473ffffffffffffffffffffffffffffffffffffffff168273ffffffffffffffffffffffffffffffffffffffff167f4a39dc06d4c0dbc64b70af90fd698a233a518aa5d07e595d983b8c0526c8f7fb86866040516117b39291906133b1565b60405180910390a46117d981856000868660405180602001604052806000815250612264565b50505050565b6117e76111e6565b73ffffffffffffffffffffffffffffffffffffffff16611805610b69565b73ffffffffffffffffffffffffffffffffffffffff161461185b576040517f08c379a0000000000000000000000000000000000000000000000000000000008152600401611852906135c9565b60405180910390fd5b565b6000600360009054906101000a900473ffffffffffffffffffffffffffffffffffffffff16905081600360006101000a81548173ffffffffffffffffffffffffffffffffffffffff021916908373ffffffffffffffffffffffffffffffffffffffff1602179055508173ffffffffffffffffffffffffffffffffffffffff168173ffffffffffffffffffffffffffffffffffffffff167f8be0079c531659141344cd1fd0a4f28419497f9722a3daafe3b4186f6b6457e060405160405180910390a35050565b8173ffffffffffffffffffffffffffffffffffffffff168373ffffffffffffffffffffffffffffffffffffffff161415611992576040517f08c379a0000000000000000000000000000000000000000000000000000000008152600401611989906135e9565b60405180910390fd5b80600160008573ffffffffffffffffffffffffffffffffffffffff1673ffffffffffffffffffffffffffffffffffffffff16815260200190815260200160002060008473ffffffffffffffffffffffffffffffffffffffff1673ffffffffffffffffffffffffffffffffffffffff16815260200190815260200160002060006101000a81548160ff0219169083151502179055508173ffffffffffffffffffffffffffffffffffffffff168373ffffffffffffffffffffffffffffffffffffffff167f17307eab39ab6107e8899845ad3d59bd9653f200f220920489ca2b5937696c3183604051611a8391906133e8565b60405180910390a3505050565b60006001600454611aa191906137f7565b905090565b60046000815480929190611ab990613978565b9190505550565b611ac982611110565b611b08576040517f08c379a0000000000000000000000000000000000000000000000000000000008152600401611aff906134e9565b60405180910390fd5b80600560008481526020019081526020016000209080519060200190611b2f9291906126d7565b505050565b600073ffffffffffffffffffffffffffffffffffffffff168473ffffffffffffffffffffffffffffffffffffffff161415611ba4576040517f08c379a0000000000000000000000000000000000000000000000000000000008152600401611b9b90613649565b60405180910390fd5b6000611bae6111e6565b90506000611bbb85612453565b90506000611bc885612453565b9050611bd98360008985858961225c565b8460008088815260200190815260200160002060008973ffffffffffffffffffffffffffffffffffffffff1673ffffffffffffffffffffffffffffffffffffffff1681526020019081526020016000206000828254611c3891906137f7565b925050819055508673ffffffffffffffffffffffffffffffffffffffff16600073ffffffffffffffffffffffffffffffffffffffff168473ffffffffffffffffffffffffffffffffffffffff167fc3d58168c5ae7397731d063d5bbf3d657854427343f4c083240f7aacaa2d0f628989604051611cb69291906136a4565b60405180910390a4611ccd83600089858589612264565b611cdc836000898989896124cd565b50505050505050565b6000600160008473ffffffffffffffffffffffffffffffffffffffff1673ffffffffffffffffffffffffffffffffffffffff16815260200190815260200160002060008373ffffffffffffffffffffffffffffffffffffffff1673ffffffffffffffffffffffffffffffffffffffff16815260200190815260200160002060009054906101000a900460ff16905092915050565b600073ffffffffffffffffffffffffffffffffffffffff168473ffffffffffffffffffffffffffffffffffffffff161415611de9576040517f08c379a0000000000000000000000000000000000000000000000000000000008152600401611de090613569565b60405180910390fd5b6000611df36111e6565b90506000611e0085612453565b90506000611e0d85612453565b9050611e1d83898985858961225c565b600080600088815260200190815260200160002060008a73ffffffffffffffffffffffffffffffffffffffff1673ffffffffffffffffffffffffffffffffffffffff16815260200190815260200160002054905085811015611eb4576040517f08c379a0000000000000000000000000000000000000000000000000000000008152600401611eab906135a9565b60405180910390fd5b85810360008089815260200190815260200160002060008b73ffffffffffffffffffffffffffffffffffffffff1673ffffffffffffffffffffffffffffffffffffffff168152602001908152602001600020819055508560008089815260200190815260200160002060008a73ffffffffffffffffffffffffffffffffffffffff1673ffffffffffffffffffffffffffffffffffffffff1681526020019081526020016000206000828254611f6991906137f7565b925050819055508773ffffffffffffffffffffffffffffffffffffffff168973ffffffffffffffffffffffffffffffffffffffff168573ffffffffffffffffffffffffffffffffffffffff167fc3d58168c5ae7397731d063d5bbf3d657854427343f4c083240f7aacaa2d0f628a8a604051611fe69291906136a4565b60405180910390a4611ffc848a8a86868a612264565b61200a848a8a8a8a8a6124cd565b505050505050505050565b600073ffffffffffffffffffffffffffffffffffffffff168373ffffffffffffffffffffffffffffffffffffffff161415612085576040517f08c379a000000000000000000000000000000000000000000000000000000000815260040161207c90613589565b60405180910390fd5b600061208f6111e6565b9050600061209c84612453565b905060006120a984612453565b90506120c98387600085856040518060200160405280600081525061225c565b600080600087815260200190815260200160002060008873ffffffffffffffffffffffffffffffffffffffff1673ffffffffffffffffffffffffffffffffffffffff16815260200190815260200160002054905084811015612160576040517f08c379a0000000000000000000000000000000000000000000000000000000008152600401612157906134c9565b60405180910390fd5b84810360008088815260200190815260200160002060008973ffffffffffffffffffffffffffffffffffffffff1673ffffffffffffffffffffffffffffffffffffffff16815260200190815260200160002081905550600073ffffffffffffffffffffffffffffffffffffffff168773ffffffffffffffffffffffffffffffffffffffff168573ffffffffffffffffffffffffffffffffffffffff167fc3d58168c5ae7397731d063d5bbf3d657854427343f4c083240f7aacaa2d0f62898960405161222d9291906136a4565b60405180910390a461225384886000868660405180602001604052806000815250612264565b50505050505050565b505050505050565b505050505050565b61228b8473ffffffffffffffffffffffffffffffffffffffff166126b4565b1561244b578373ffffffffffffffffffffffffffffffffffffffff1663bc197c8187878686866040518663ffffffff1660e01b81526004016122d19594939291906132cd565b602060405180830381600087803b1580156122eb57600080fd5b505af192505050801561231c57506040513d601f19601f820116820180604052508101906123199190612e2f565b60015b6123c257612328613a7d565b806308c379a01415612385575061233d613fae565b806123485750612387565b806040517f08c379a000000000000000000000000000000000000000000000000000000000815260040161237c9190613427565b60405180910390fd5b505b6040517f08c379a00000000000000000000000000000000000000000000000000000000081526004016123b990613669565b60405180910390fd5b63bc197c8160e01b7bffffffffffffffffffffffffffffffffffffffffffffffffffffffff1916817bffffffffffffffffffffffffffffffffffffffffffffffffffffffff191614612449576040517f08c379a000000000000000000000000000000000000000000000000000000000815260040161244090613449565b60405180910390fd5b505b505050505050565b60606000600167ffffffffffffffff81111561247257612471613a4e565b5b6040519080825280602002602001820160405280156124a05781602001602082028036833780820191505090505b50905082816000815181106124b8576124b7613a1f565b5b60200260200101818152505080915050919050565b6124ec8473ffffffffffffffffffffffffffffffffffffffff166126b4565b156126ac578373ffffffffffffffffffffffffffffffffffffffff1663f23a6e6187878686866040518663ffffffff1660e01b8152600401612532959493929190613335565b602060405180830381600087803b15801561254c57600080fd5b505af192505050801561257d57506040513d601f19601f8201168201806040525081019061257a9190612e2f565b60015b61262357612589613a7d565b806308c379a014156125e6575061259e613fae565b806125a957506125e8565b806040517f08c379a00000000000000000000000000000000000000000000000000000000081526004016125dd9190613427565b60405180910390fd5b505b6040517f08c379a000000000000000000000000000000000000000000000000000000000815260040161261a90613669565b60405180910390fd5b63f23a6e6160e01b7bffffffffffffffffffffffffffffffffffffffffffffffffffffffff1916817bffffffffffffffffffffffffffffffffffffffffffffffffffffffff1916146126aa576040517f08c379a00000000000000000000000000000000000000000000000000000000081526004016126a190613449565b60405180910390fd5b505b505050505050565b6000808273ffffffffffffffffffffffffffffffffffffffff163b119050919050565b8280546126e390613915565b90600052602060002090601f016020900481019282612705576000855561274c565b82601f1061271e57805160ff191683800117855561274c565b8280016001018555821561274c579182015b8281111561274b578251825591602001919060010190612730565b5b509050612759919061275d565b5090565b5b8082111561277657600081600090555060010161275e565b5090565b600061278d612788846136f2565b6136cd565b905080838252602082019050828560208602820111156127b0576127af613aa9565b5b60005b858110156127e057816127c6888261289c565b8452602084019350602083019250506001810190506127b3565b5050509392505050565b60006127fd6127f88461371e565b6136cd565b905080838252602082019050828560208602820111156128205761281f613aa9565b5b60005b85811015612850578161283688826129d0565b845260208401935060208301925050600181019050612823565b5050509392505050565b600061286d6128688461374a565b6136cd565b90508281526020810184848401111561288957612888613aae565b5b6128948482856138d3565b509392505050565b6000813590506128ab81614044565b92915050565b600082601f8301126128c6576128c5613aa4565b5b81356128d684826020860161277a565b91505092915050565b600082601f8301126128f4576128f3613aa4565b5b81356129048482602086016127ea565b91505092915050565b60008135905061291c8161405b565b92915050565b60008135905061293181614072565b92915050565b60008151905061294681614072565b92915050565b600082601f83011261296157612960613aa4565b5b813561297184826020860161285a565b91505092915050565b60008083601f8401126129905761298f613aa4565b5b8235905067ffffffffffffffff8111156129ad576129ac613a9f565b5b6020830191508360018202830111156129c9576129c8613aa9565b5b9250929050565b6000813590506129df81614089565b92915050565b6000602082840312156129fb576129fa613ab8565b5b6000612a098482850161289c565b91505092915050565b60008060408385031215612a2957612a28613ab8565b5b6000612a378582860161289c565b9250506020612a488582860161289c565b9150509250929050565b600080600080600060a08688031215612a6e57612a6d613ab8565b5b6000612a7c8882890161289c565b9550506020612a8d8882890161289c565b945050604086013567ffffffffffffffff811115612aae57612aad613ab3565b5b612aba888289016128df565b935050606086013567ffffffffffffffff811115612adb57612ada613ab3565b5b612ae7888289016128df565b925050608086013567ffffffffffffffff811115612b0857612b07613ab3565b5b612b148882890161294c565b9150509295509295909350565b600080600080600060a08688031215612b3d57612b3c613ab8565b5b6000612b4b8882890161289c565b9550506020612b5c8882890161289c565b9450506040612b6d888289016129d0565b9350506060612b7e888289016129d0565b925050608086013567ffffffffffffffff811115612b9f57612b9e613ab3565b5b612bab8882890161294c565b9150509295509295909350565b600080600060608486031215612bd157612bd0613ab8565b5b6000612bdf8682870161289c565b935050602084013567ffffffffffffffff811115612c0057612bff613ab3565b5b612c0c868287016128df565b925050604084013567ffffffffffffffff811115612c2d57612c2c613ab3565b5b612c39868287016128df565b9150509250925092565b60008060408385031215612c5a57612c59613ab8565b5b6000612c688582860161289c565b9250506020612c798582860161290d565b9150509250929050565b60008060408385031215612c9a57612c99613ab8565b5b6000612ca88582860161289c565b9250506020612cb9858286016129d0565b9150509250929050565b60008060008060608587031215612cdd57612cdc613ab8565b5b6000612ceb8782880161289c565b9450506020612cfc878288016129d0565b935050604085013567ffffffffffffffff811115612d1d57612d1c613ab3565b5b612d298782880161297a565b925092505092959194509250565b600080600060608486031215612d5057612d4f613ab8565b5b6000612d5e8682870161289c565b9350506020612d6f868287016129d0565b9250506040612d80868287016129d0565b9150509250925092565b60008060408385031215612da157612da0613ab8565b5b600083013567ffffffffffffffff811115612dbf57612dbe613ab3565b5b612dcb858286016128b1565b925050602083013567ffffffffffffffff811115612dec57612deb613ab3565b5b612df8858286016128df565b9150509250929050565b600060208284031215612e1857612e17613ab8565b5b6000612e2684828501612922565b91505092915050565b600060208284031215612e4557612e44613ab8565b5b6000612e5384828501612937565b91505092915050565b600060208284031215612e7257612e71613ab8565b5b6000612e80848285016129d0565b91505092915050565b6000612e958383613264565b60208301905092915050565b612eaa8161385f565b82525050565b612eb98161384d565b82525050565b6000612eca8261378b565b612ed481856137b9565b9350612edf8361377b565b8060005b83811015612f10578151612ef78882612e89565b9750612f02836137ac565b925050600181019050612ee3565b5085935050505092915050565b612f2681613871565b82525050565b6000612f3782613796565b612f4181856137ca565b9350612f518185602086016138e2565b612f5a81613abd565b840191505092915050565b6000612f7183856137e6565b9350612f7e8385846138d3565b612f8783613abd565b840190509392505050565b6000612f9d826137a1565b612fa781856137e6565b9350612fb78185602086016138e2565b612fc081613abd565b840191505092915050565b6000612fd86028836137e6565b9150612fe382613adb565b604082019050919050565b6000612ffb601b836137e6565b915061300682613b2a565b602082019050919050565b600061301e6026836137e6565b915061302982613b53565b604082019050919050565b6000613041600f836137e6565b915061304c82613ba2565b602082019050919050565b60006130646024836137e6565b915061306f82613bcb565b604082019050919050565b60006130876020836137e6565b915061309282613c1a565b602082019050919050565b60006130aa602a836137e6565b91506130b582613c43565b604082019050919050565b60006130cd602e836137e6565b91506130d882613c92565b604082019050919050565b60006130f06011836137e6565b91506130fb82613ce1565b602082019050919050565b60006131136025836137e6565b915061311e82613d0a565b604082019050919050565b60006131366023836137e6565b915061314182613d59565b604082019050919050565b6000613159602a836137e6565b915061316482613da8565b604082019050919050565b600061317c6020836137e6565b915061318782613df7565b602082019050919050565b600061319f6000836137db565b91506131aa82613e20565b600082019050919050565b60006131c26029836137e6565b91506131cd82613e23565b604082019050919050565b60006131e56029836137e6565b91506131f082613e72565b604082019050919050565b60006132086028836137e6565b915061321382613ec1565b604082019050919050565b600061322b6021836137e6565b915061323682613f10565b604082019050919050565b600061324e6034836137e6565b915061325982613f5f565b604082019050919050565b61326d816138c9565b82525050565b61327c816138c9565b82525050565b600061328d82613192565b9150819050919050565b60006020820190506132ac6000830184612eb0565b92915050565b60006020820190506132c76000830184612ea1565b92915050565b600060a0820190506132e26000830188612eb0565b6132ef6020830187612eb0565b81810360408301526133018186612ebf565b905081810360608301526133158185612ebf565b905081810360808301526133298184612f2c565b90509695505050505050565b600060a08201905061334a6000830188612eb0565b6133576020830187612eb0565b6133646040830186613273565b6133716060830185613273565b81810360808301526133838184612f2c565b90509695505050505050565b600060208201905081810360008301526133a98184612ebf565b905092915050565b600060408201905081810360008301526133cb8185612ebf565b905081810360208301526133df8184612ebf565b90509392505050565b60006020820190506133fd6000830184612f1d565b92915050565b6000602082019050818103600083015261341e818486612f65565b90509392505050565b600060208201905081810360008301526134418184612f92565b905092915050565b6000602082019050818103600083015261346281612fcb565b9050919050565b6000602082019050818103600083015261348281612fee565b9050919050565b600060208201905081810360008301526134a281613011565b9050919050565b600060208201905081810360008301526134c281613034565b9050919050565b600060208201905081810360008301526134e281613057565b9050919050565b600060208201905081810360008301526135028161307a565b9050919050565b600060208201905081810360008301526135228161309d565b9050919050565b60006020820190508181036000830152613542816130c0565b9050919050565b60006020820190508181036000830152613562816130e3565b9050919050565b6000602082019050818103600083015261358281613106565b9050919050565b600060208201905081810360008301526135a281613129565b9050919050565b600060208201905081810360008301526135c28161314c565b9050919050565b600060208201905081810360008301526135e28161316f565b9050919050565b60006020820190508181036000830152613602816131b5565b9050919050565b60006020820190508181036000830152613622816131d8565b9050919050565b60006020820190508181036000830152613642816131fb565b9050919050565b600060208201905081810360008301526136628161321e565b9050919050565b6000602082019050818103600083015261368281613241565b9050919050565b600060208201905061369e6000830184613273565b92915050565b60006040820190506136b96000830185613273565b6136c66020830184613273565b9392505050565b60006136d76136e8565b90506136e38282613947565b919050565b6000604051905090565b600067ffffffffffffffff82111561370d5761370c613a4e565b5b602082029050602081019050919050565b600067ffffffffffffffff82111561373957613738613a4e565b5b602082029050602081019050919050565b600067ffffffffffffffff82111561376557613764613a4e565b5b61376e82613abd565b9050602081019050919050565b6000819050602082019050919050565b600081519050919050565b600081519050919050565b600081519050919050565b6000602082019050919050565b600082825260208201905092915050565b600082825260208201905092915050565b600081905092915050565b600082825260208201905092915050565b6000613802826138c9565b915061380d836138c9565b9250827fffffffffffffffffffffffffffffffffffffffffffffffffffffffffffffffff03821115613842576138416139c1565b5b828201905092915050565b6000613858826138a9565b9050919050565b600061386a826138a9565b9050919050565b60008115159050919050565b60007fffffffff0000000000000000000000000000000000000000000000000000000082169050919050565b600073ffffffffffffffffffffffffffffffffffffffff82169050919050565b6000819050919050565b82818337600083830152505050565b60005b838110156139005780820151818401526020810190506138e5565b8381111561390f576000848401525b50505050565b6000600282049050600182168061392d57607f821691505b60208210811415613941576139406139f0565b5b50919050565b61395082613abd565b810181811067ffffffffffffffff8211171561396f5761396e613a4e565b5b80604052505050565b6000613983826138c9565b91507fffffffffffffffffffffffffffffffffffffffffffffffffffffffffffffffff8214156139b6576139b56139c1565b5b600182019050919050565b7f4e487b7100000000000000000000000000000000000000000000000000000000600052601160045260246000fd5b7f4e487b7100000000000000000000000000000000000000000000000000000000600052602260045260246000fd5b7f4e487b7100000000000000000000000000000000000000000000000000000000600052603260045260246000fd5b7f4e487b7100000000000000000000000000000000000000000000000000000000600052604160045260246000fd5b600060033d1115613a9c5760046000803e613a99600051613ace565b90505b90565b600080fd5b600080fd5b600080fd5b600080fd5b600080fd5b600080fd5b6000601f19601f8301169050919050565b60008160e01c9050919050565b7f455243313135353a204552433131353552656365697665722072656a6563746560008201527f6420746f6b656e73000000000000000000000000000000000000000000000000602082015250565b7f496e73756666696369656e742066756e647320746f206d696e742e0000000000600082015250565b7f4f776e61626c653a206e6577206f776e657220697320746865207a65726f206160008201527f6464726573730000000000000000000000000000000000000000000000000000602082015250565b7f5472616e73666572206661696c65640000000000000000000000000000000000600082015250565b7f455243313135353a206275726e20616d6f756e7420657863656564732062616c60008201527f616e636500000000000000000000000000000000000000000000000000000000602082015250565b7f5f736574546f6b656e5552493a20546f6b656e2073686f756c64206578697374600082015250565b7f455243313135353a2061646472657373207a65726f206973206e6f742061207660008201527f616c6964206f776e657200000000000000000000000000000000000000000000602082015250565b7f455243313135353a2063616c6c6572206973206e6f7420746f6b656e206f776e60008201527f6572206f7220617070726f766564000000000000000000000000000000000000602082015250565b7f4e4f4e4558495354454e545f544f4b454e000000000000000000000000000000600082015250565b7f455243313135353a207472616e7366657220746f20746865207a65726f20616460008201527f6472657373000000000000000000000000000000000000000000000000000000602082015250565b7f455243313135353a206275726e2066726f6d20746865207a65726f206164647260008201527f6573730000000000000000000000000000000000000000000000000000000000602082015250565b7f455243313135353a20696e73756666696369656e742062616c616e636520666f60008201527f72207472616e7366657200000000000000000000000000000000000000000000602082015250565b7f4f776e61626c653a2063616c6c6572206973206e6f7420746865206f776e6572600082015250565b50565b7f455243313135353a2073657474696e6720617070726f76616c2073746174757360008201527f20666f722073656c660000000000000000000000000000000000000000000000602082015250565b7f455243313135353a206163636f756e747320616e6420696473206c656e67746860008201527f206d69736d617463680000000000000000000000000000000000000000000000602082015250565b7f455243313135353a2069647320616e6420616d6f756e7473206c656e6774682060008201527f6d69736d61746368000000000000000000000000000000000000000000000000602082015250565b7f455243313135353a206d696e7420746f20746865207a65726f2061646472657360008201527f7300000000000000000000000000000000000000000000000000000000000000602082015250565b7f455243313135353a207472616e7366657220746f206e6f6e2d4552433131353560008201527f526563656976657220696d706c656d656e746572000000000000000000000000602082015250565b600060443d1015613fbe57614041565b613fc66136e8565b60043d036004823e80513d602482011167ffffffffffffffff82111715613fee575050614041565b808201805167ffffffffffffffff81111561400c5750505050614041565b80602083010160043d038501811115614029575050505050614041565b61403882602001850186613947565b82955050505050505b90565b61404d8161384d565b811461405857600080fd5b50565b61406481613871565b811461406f57600080fd5b50565b61407b8161387d565b811461408657600080fd5b50565b614092816138c9565b811461409d57600080fd5b5056fea26469706673582212207496f707901f7304eac5b63c00c0ce2dbb5937cac2e5aef43277e75858db212464736f6c63430008070033",
  "linkReferences": {},
  "deployedLinkReferences": {}
}